{
	"data": {
		"bytecode": {
			"linkReferences": {},
			"object": "608060405234801561000f575f5ffd5b5060405161132e38038061132e83398181016040528101906100319190610114565b335f5f6101000a81548173ffffffffffffffffffffffffffffffffffffffff021916908373ffffffffffffffffffffffffffffffffffffffff16021790555081600181905550603c81610084919061017f565b4261008f91906101c0565b6002819055505f6003819055505f60045f6101000a81548160ff0219169083151502179055505f600460016101000a81548160ff0219169083151502179055505f60068190555050506101f3565b5f5ffd5b5f819050919050565b6100f3816100e1565b81146100fd575f5ffd5b50565b5f8151905061010e816100ea565b92915050565b5f5f6040838503121561012a576101296100dd565b5b5f61013785828601610100565b925050602061014885828601610100565b9150509250929050565b7f4e487b71000000000000000000000000000000000000000000000000000000005f52601160045260245ffd5b5f610189826100e1565b9150610194836100e1565b92508282026101a2816100e1565b915082820484148315176101b9576101b8610152565b5b5092915050565b5f6101ca826100e1565b91506101d5836100e1565b92508282019050808211156101ed576101ec610152565b5b92915050565b61112e806102005f395ff3fe6080604052600436106100a6575f3560e01c80637d3d6522116100635780637d3d6522146101905780638da5cb5b146101ba578063ac307fcf146101e4578063c5c4744c1461020e578063c7e284b814610238578063ed88c68e14610262576100a6565b806312065fe0146100aa57806324600fc3146100d457806329dcb0cf146100ea578063401938831461011457806342e94c901461013e578063590e1ae31461017a575b5f5ffd5b3480156100b5575f5ffd5b506100be61026c565b6040516100cb9190610a9f565b60405180910390f35b3480156100df575f5ffd5b506100e8610273565b005b3480156100f5575f5ffd5b506100fe610598565b60405161010b9190610a9f565b60405180910390f35b34801561011f575f5ffd5b5061012861059e565b6040516101359190610a9f565b60405180910390f35b348015610149575f5ffd5b50610164600480360381019061015f9190610b16565b6105a4565b6040516101719190610a9f565b60405180910390f35b348015610185575f5ffd5b5061018e6105b9565b005b34801561019b575f5ffd5b506101a4610867565b6040516101b19190610b5b565b60405180910390f35b3480156101c5575f5ffd5b506101ce610879565b6040516101db9190610b83565b60405180910390f35b3480156101ef575f5ffd5b506101f861089d565b6040516102059190610b5b565b60405180910390f35b348015610219575f5ffd5b506102226108b0565b60405161022f9190610a9f565b60405180910390f35b348015610243575f5ffd5b5061024c6108b6565b6040516102599190610a9f565b60405180910390f35b61026a6108dc565b005b5f47905090565b5f5f9054906101000a900473ffffffffffffffffffffffffffffffffffffffff1673ffffffffffffffffffffffffffffffffffffffff163373ffffffffffffffffffffffffffffffffffffffff1614610301576040517f08c379a00000000000000000000000000000000000000000000000000000000081526004016102f890610bf6565b60405180910390fd5b600254421015610346576040517f08c379a000000000000000000000000000000000000000000000000000000000815260040161033d90610c5e565b60405180910390fd5b5f6006541461038a576040517f08c379a000000000000000000000000000000000000000000000000000000000815260040161038190610cc6565b60405180910390fd5b600160068190555061039a610a1d565b60045f9054906101000a900460ff166103e8576040517f08c379a00000000000000000000000000000000000000000000000000000000081526004016103df90610d2e565b60405180910390fd5b600460019054906101000a900460ff1615610438576040517f08c379a000000000000000000000000000000000000000000000000000000000815260040161042f90610d96565b60405180910390fd5b5f4790506001600460016101000a81548160ff0219169083151502179055505f5f5f9054906101000a900473ffffffffffffffffffffffffffffffffffffffff1673ffffffffffffffffffffffffffffffffffffffff168260405161049c90610de1565b5f6040518083038185875af1925050503d805f81146104d6576040519150601f19603f3d011682016040523d82523d5f602084013e6104db565b606091505b505090508061051f576040517f08c379a000000000000000000000000000000000000000000000000000000000815260040161051690610e3f565b60405180910390fd5b5f5f9054906101000a900473ffffffffffffffffffffffffffffffffffffffff1673ffffffffffffffffffffffffffffffffffffffff167feaff4b37086828766ad3268786972c0cd24259d4c87a80f9d3963a3c3d999b0d836040516105859190610a9f565b60405180910390a250505f600681905550565b60025481565b60015481565b6005602052805f5260405f205f915090505481565b6002544210156105fe576040517f08c379a00000000000000000000000000000000000000000000000000000000081526004016105f590610c5e565b60405180910390fd5b5f60065414610642576040517f08c379a000000000000000000000000000000000000000000000000000000000815260040161063990610cc6565b60405180910390fd5b6001600681905550610652610a1d565b60045f9054906101000a900460ff16156106a1576040517f08c379a000000000000000000000000000000000000000000000000000000000815260040161069890610ea7565b60405180910390fd5b5f60055f3373ffffffffffffffffffffffffffffffffffffffff1673ffffffffffffffffffffffffffffffffffffffff1681526020019081526020015f205490505f8111610724576040517f08c379a000000000000000000000000000000000000000000000000000000000815260040161071b90610f0f565b60405180910390fd5b5f60055f3373ffffffffffffffffffffffffffffffffffffffff1673ffffffffffffffffffffffffffffffffffffffff1681526020019081526020015f20819055505f3373ffffffffffffffffffffffffffffffffffffffff168260405161078b90610de1565b5f6040518083038185875af1925050503d805f81146107c5576040519150601f19603f3d011682016040523d82523d5f602084013e6107ca565b606091505b505090508061080e576040517f08c379a000000000000000000000000000000000000000000000000000000000815260040161080590610f77565b60405180910390fd5b3373ffffffffffffffffffffffffffffffffffffffff167fa171b6942063c6f2800ce40a780edce37baa2b618571b11eedd1e69e626e7d76836040516108549190610a9f565b60405180910390a250505f600681905550565b60045f9054906101000a900460ff1681565b5f5f9054906101000a900473ffffffffffffffffffffffffffffffffffffffff1681565b600460019054906101000a900460ff1681565b60035481565b5f60025442106108c8575f90506108d9565b426002546108d69190610fc2565b90505b90565b6002544210610920576040517f08c379a00000000000000000000000000000000000000000000000000000000081526004016109179061103f565b60405180910390fd5b5f3411610962576040517f08c379a0000000000000000000000000000000000000000000000000000000008152600401610959906110a7565b60405180910390fd5b3460055f3373ffffffffffffffffffffffffffffffffffffffff1673ffffffffffffffffffffffffffffffffffffffff1681526020019081526020015f205f8282546109ae91906110c5565b925050819055503460035f8282546109c691906110c5565b925050819055503373ffffffffffffffffffffffffffffffffffffffff167f264f630d9efa0d07053a31163641d9fcc0adafc9d9e76f1c37c2ce3a558d2c5234604051610a139190610a9f565b60405180910390a2565b60045f9054906101000a900460ff16158015610a3b57506002544210155b15610a855760015460035410610a6a57600160045f6101000a81548160ff021916908315150217905550610a84565b5f60045f6101000a81548160ff0219169083151502179055505b5b565b5f819050919050565b610a9981610a87565b82525050565b5f602082019050610ab25f830184610a90565b92915050565b5f5ffd5b5f73ffffffffffffffffffffffffffffffffffffffff82169050919050565b5f610ae582610abc565b9050919050565b610af581610adb565b8114610aff575f5ffd5b50565b5f81359050610b1081610aec565b92915050565b5f60208284031215610b2b57610b2a610ab8565b5b5f610b3884828501610b02565b91505092915050565b5f8115159050919050565b610b5581610b41565b82525050565b5f602082019050610b6e5f830184610b4c565b92915050565b610b7d81610adb565b82525050565b5f602082019050610b965f830184610b74565b92915050565b5f82825260208201905092915050565b7f4f6e6c79206f776e6572000000000000000000000000000000000000000000005f82015250565b5f610be0600a83610b9c565b9150610beb82610bac565b602082019050919050565b5f6020820190508181035f830152610c0d81610bd4565b9050919050565b7f43616d706169676e207374696c6c2061637469766500000000000000000000005f82015250565b5f610c48601583610b9c565b9150610c5382610c14565b602082019050919050565b5f6020820190508181035f830152610c7581610c3c565b9050919050565b7f5265656e7472616e742063616c6c0000000000000000000000000000000000005f82015250565b5f610cb0600e83610b9c565b9150610cbb82610c7c565b602082019050919050565b5f6020820190508181035f830152610cdd81610ca4565b9050919050565b7f476f616c206e6f742072656163686564000000000000000000000000000000005f82015250565b5f610d18601083610b9c565b9150610d2382610ce4565b602082019050919050565b5f6020820190508181035f830152610d4581610d0c565b9050919050565b7f46756e647320616c72656164792077697468647261776e0000000000000000005f82015250565b5f610d80601783610b9c565b9150610d8b82610d4c565b602082019050919050565b5f6020820190508181035f830152610dad81610d74565b9050919050565b5f81905092915050565b50565b5f610dcc5f83610db4565b9150610dd782610dbe565b5f82019050919050565b5f610deb82610dc1565b9150819050919050565b7f5769746864726177206661696c656400000000000000000000000000000000005f82015250565b5f610e29600f83610b9c565b9150610e3482610df5565b602082019050919050565b5f6020820190508181035f830152610e5681610e1d565b9050919050565b7f476f616c2077617320726561636865642c206e6f20726566756e6473000000005f82015250565b5f610e91601c83610b9c565b9150610e9c82610e5d565b602082019050919050565b5f6020820190508181035f830152610ebe81610e85565b9050919050565b7f4e6f20636f6e747269627574696f6e20746f20726566756e64000000000000005f82015250565b5f610ef9601983610b9c565b9150610f0482610ec5565b602082019050919050565b5f6020820190508181035f830152610f2681610eed565b9050919050565b7f526566756e64206661696c6564000000000000000000000000000000000000005f82015250565b5f610f61600d83610b9c565b9150610f6c82610f2d565b602082019050919050565b5f6020820190508181035f830152610f8e81610f55565b9050919050565b7f4e487b71000000000000000000000000000000000000000000000000000000005f52601160045260245ffd5b5f610fcc82610a87565b9150610fd783610a87565b9250828203905081811115610fef57610fee610f95565b5b92915050565b7f43616d706169676e20656e6465640000000000000000000000000000000000005f82015250565b5f611029600e83610b9c565b915061103482610ff5565b602082019050919050565b5f6020820190508181035f8301526110568161101d565b9050919050565b7f446f6e617465206e6f6e2d7a65726f20616d6f756e74000000000000000000005f82015250565b5f611091601683610b9c565b915061109c8261105d565b602082019050919050565b5f6020820190508181035f8301526110be81611085565b9050919050565b5f6110cf82610a87565b91506110da83610a87565b92508282019050808211156110f2576110f1610f95565b5b9291505056fea2646970667358221220ead038cd8f51883ce4dcc1f42dd5342202af4d6e17dae8708a9e60822872943364736f6c634300081e0033",
			"opcodes": "PUSH1 0x80 PUSH1 0x40 MSTORE CALLVALUE DUP1 ISZERO PUSH2 0xF JUMPI PUSH0 PUSH0 REVERT JUMPDEST POP PUSH1 0x40 MLOAD PUSH2 0x132E CODESIZE SUB DUP1 PUSH2 0x132E DUP4 CODECOPY DUP2 DUP2 ADD PUSH1 0x40 MSTORE DUP2 ADD SWAP1 PUSH2 0x31 SWAP2 SWAP1 PUSH2 0x114 JUMP JUMPDEST CALLER PUSH0 PUSH0 PUSH2 0x100 EXP DUP2 SLOAD DUP2 PUSH20 0xFFFFFFFFFFFFFFFFFFFFFFFFFFFFFFFFFFFFFFFF MUL NOT AND SWAP1 DUP4 PUSH20 0xFFFFFFFFFFFFFFFFFFFFFFFFFFFFFFFFFFFFFFFF AND MUL OR SWAP1 SSTORE POP DUP2 PUSH1 0x1 DUP2 SWAP1 SSTORE POP PUSH1 0x3C DUP2 PUSH2 0x84 SWAP2 SWAP1 PUSH2 0x17F JUMP JUMPDEST TIMESTAMP PUSH2 0x8F SWAP2 SWAP1 PUSH2 0x1C0 JUMP JUMPDEST PUSH1 0x2 DUP2 SWAP1 SSTORE POP PUSH0 PUSH1 0x3 DUP2 SWAP1 SSTORE POP PUSH0 PUSH1 0x4 PUSH0 PUSH2 0x100 EXP DUP2 SLOAD DUP2 PUSH1 0xFF MUL NOT AND SWAP1 DUP4 ISZERO ISZERO MUL OR SWAP1 SSTORE POP PUSH0 PUSH1 0x4 PUSH1 0x1 PUSH2 0x100 EXP DUP2 SLOAD DUP2 PUSH1 0xFF MUL NOT AND SWAP1 DUP4 ISZERO ISZERO MUL OR SWAP1 SSTORE POP PUSH0 PUSH1 0x6 DUP2 SWAP1 SSTORE POP POP POP PUSH2 0x1F3 JUMP JUMPDEST PUSH0 PUSH0 REVERT JUMPDEST PUSH0 DUP2 SWAP1 POP SWAP2 SWAP1 POP JUMP JUMPDEST PUSH2 0xF3 DUP2 PUSH2 0xE1 JUMP JUMPDEST DUP2 EQ PUSH2 0xFD JUMPI PUSH0 PUSH0 REVERT JUMPDEST POP JUMP JUMPDEST PUSH0 DUP2 MLOAD SWAP1 POP PUSH2 0x10E DUP2 PUSH2 0xEA JUMP JUMPDEST SWAP3 SWAP2 POP POP JUMP JUMPDEST PUSH0 PUSH0 PUSH1 0x40 DUP4 DUP6 SUB SLT ISZERO PUSH2 0x12A JUMPI PUSH2 0x129 PUSH2 0xDD JUMP JUMPDEST JUMPDEST PUSH0 PUSH2 0x137 DUP6 DUP3 DUP7 ADD PUSH2 0x100 JUMP JUMPDEST SWAP3 POP POP PUSH1 0x20 PUSH2 0x148 DUP6 DUP3 DUP7 ADD PUSH2 0x100 JUMP JUMPDEST SWAP2 POP POP SWAP3 POP SWAP3 SWAP1 POP JUMP JUMPDEST PUSH32 0x4E487B7100000000000000000000000000000000000000000000000000000000 PUSH0 MSTORE PUSH1 0x11 PUSH1 0x4 MSTORE PUSH1 0x24 PUSH0 REVERT JUMPDEST PUSH0 PUSH2 0x189 DUP3 PUSH2 0xE1 JUMP JUMPDEST SWAP2 POP PUSH2 0x194 DUP4 PUSH2 0xE1 JUMP JUMPDEST SWAP3 POP DUP3 DUP3 MUL PUSH2 0x1A2 DUP2 PUSH2 0xE1 JUMP JUMPDEST SWAP2 POP DUP3 DUP3 DIV DUP5 EQ DUP4 ISZERO OR PUSH2 0x1B9 JUMPI PUSH2 0x1B8 PUSH2 0x152 JUMP JUMPDEST JUMPDEST POP SWAP3 SWAP2 POP POP JUMP JUMPDEST PUSH0 PUSH2 0x1CA DUP3 PUSH2 0xE1 JUMP JUMPDEST SWAP2 POP PUSH2 0x1D5 DUP4 PUSH2 0xE1 JUMP JUMPDEST SWAP3 POP DUP3 DUP3 ADD SWAP1 POP DUP1 DUP3 GT ISZERO PUSH2 0x1ED JUMPI PUSH2 0x1EC PUSH2 0x152 JUMP JUMPDEST JUMPDEST SWAP3 SWAP2 POP POP JUMP JUMPDEST PUSH2 0x112E DUP1 PUSH2 0x200 PUSH0 CODECOPY PUSH0 RETURN INVALID PUSH1 0x80 PUSH1 0x40 MSTORE PUSH1 0x4 CALLDATASIZE LT PUSH2 0xA6 JUMPI PUSH0 CALLDATALOAD PUSH1 0xE0 SHR DUP1 PUSH4 0x7D3D6522 GT PUSH2 0x63 JUMPI DUP1 PUSH4 0x7D3D6522 EQ PUSH2 0x190 JUMPI DUP1 PUSH4 0x8DA5CB5B EQ PUSH2 0x1BA JUMPI DUP1 PUSH4 0xAC307FCF EQ PUSH2 0x1E4 JUMPI DUP1 PUSH4 0xC5C4744C EQ PUSH2 0x20E JUMPI DUP1 PUSH4 0xC7E284B8 EQ PUSH2 0x238 JUMPI DUP1 PUSH4 0xED88C68E EQ PUSH2 0x262 JUMPI PUSH2 0xA6 JUMP JUMPDEST DUP1 PUSH4 0x12065FE0 EQ PUSH2 0xAA JUMPI DUP1 PUSH4 0x24600FC3 EQ PUSH2 0xD4 JUMPI DUP1 PUSH4 0x29DCB0CF EQ PUSH2 0xEA JUMPI DUP1 PUSH4 0x40193883 EQ PUSH2 0x114 JUMPI DUP1 PUSH4 0x42E94C90 EQ PUSH2 0x13E JUMPI DUP1 PUSH4 0x590E1AE3 EQ PUSH2 0x17A JUMPI JUMPDEST PUSH0 PUSH0 REVERT JUMPDEST CALLVALUE DUP1 ISZERO PUSH2 0xB5 JUMPI PUSH0 PUSH0 REVERT JUMPDEST POP PUSH2 0xBE PUSH2 0x26C JUMP JUMPDEST PUSH1 0x40 MLOAD PUSH2 0xCB SWAP2 SWAP1 PUSH2 0xA9F JUMP JUMPDEST PUSH1 0x40 MLOAD DUP1 SWAP2 SUB SWAP1 RETURN JUMPDEST CALLVALUE DUP1 ISZERO PUSH2 0xDF JUMPI PUSH0 PUSH0 REVERT JUMPDEST POP PUSH2 0xE8 PUSH2 0x273 JUMP JUMPDEST STOP JUMPDEST CALLVALUE DUP1 ISZERO PUSH2 0xF5 JUMPI PUSH0 PUSH0 REVERT JUMPDEST POP PUSH2 0xFE PUSH2 0x598 JUMP JUMPDEST PUSH1 0x40 MLOAD PUSH2 0x10B SWAP2 SWAP1 PUSH2 0xA9F JUMP JUMPDEST PUSH1 0x40 MLOAD DUP1 SWAP2 SUB SWAP1 RETURN JUMPDEST CALLVALUE DUP1 ISZERO PUSH2 0x11F JUMPI PUSH0 PUSH0 REVERT JUMPDEST POP PUSH2 0x128 PUSH2 0x59E JUMP JUMPDEST PUSH1 0x40 MLOAD PUSH2 0x135 SWAP2 SWAP1 PUSH2 0xA9F JUMP JUMPDEST PUSH1 0x40 MLOAD DUP1 SWAP2 SUB SWAP1 RETURN JUMPDEST CALLVALUE DUP1 ISZERO PUSH2 0x149 JUMPI PUSH0 PUSH0 REVERT JUMPDEST POP PUSH2 0x164 PUSH1 0x4 DUP1 CALLDATASIZE SUB DUP2 ADD SWAP1 PUSH2 0x15F SWAP2 SWAP1 PUSH2 0xB16 JUMP JUMPDEST PUSH2 0x5A4 JUMP JUMPDEST PUSH1 0x40 MLOAD PUSH2 0x171 SWAP2 SWAP1 PUSH2 0xA9F JUMP JUMPDEST PUSH1 0x40 MLOAD DUP1 SWAP2 SUB SWAP1 RETURN JUMPDEST CALLVALUE DUP1 ISZERO PUSH2 0x185 JUMPI PUSH0 PUSH0 REVERT JUMPDEST POP PUSH2 0x18E PUSH2 0x5B9 JUMP JUMPDEST STOP JUMPDEST CALLVALUE DUP1 ISZERO PUSH2 0x19B JUMPI PUSH0 PUSH0 REVERT JUMPDEST POP PUSH2 0x1A4 PUSH2 0x867 JUMP JUMPDEST PUSH1 0x40 MLOAD PUSH2 0x1B1 SWAP2 SWAP1 PUSH2 0xB5B JUMP JUMPDEST PUSH1 0x40 MLOAD DUP1 SWAP2 SUB SWAP1 RETURN JUMPDEST CALLVALUE DUP1 ISZERO PUSH2 0x1C5 JUMPI PUSH0 PUSH0 REVERT JUMPDEST POP PUSH2 0x1CE PUSH2 0x879 JUMP JUMPDEST PUSH1 0x40 MLOAD PUSH2 0x1DB SWAP2 SWAP1 PUSH2 0xB83 JUMP JUMPDEST PUSH1 0x40 MLOAD DUP1 SWAP2 SUB SWAP1 RETURN JUMPDEST CALLVALUE DUP1 ISZERO PUSH2 0x1EF JUMPI PUSH0 PUSH0 REVERT JUMPDEST POP PUSH2 0x1F8 PUSH2 0x89D JUMP JUMPDEST PUSH1 0x40 MLOAD PUSH2 0x205 SWAP2 SWAP1 PUSH2 0xB5B JUMP JUMPDEST PUSH1 0x40 MLOAD DUP1 SWAP2 SUB SWAP1 RETURN JUMPDEST CALLVALUE DUP1 ISZERO PUSH2 0x219 JUMPI PUSH0 PUSH0 REVERT JUMPDEST POP PUSH2 0x222 PUSH2 0x8B0 JUMP JUMPDEST PUSH1 0x40 MLOAD PUSH2 0x22F SWAP2 SWAP1 PUSH2 0xA9F JUMP JUMPDEST PUSH1 0x40 MLOAD DUP1 SWAP2 SUB SWAP1 RETURN JUMPDEST CALLVALUE DUP1 ISZERO PUSH2 0x243 JUMPI PUSH0 PUSH0 REVERT JUMPDEST POP PUSH2 0x24C PUSH2 0x8B6 JUMP JUMPDEST PUSH1 0x40 MLOAD PUSH2 0x259 SWAP2 SWAP1 PUSH2 0xA9F JUMP JUMPDEST PUSH1 0x40 MLOAD DUP1 SWAP2 SUB SWAP1 RETURN JUMPDEST PUSH2 0x26A PUSH2 0x8DC JUMP JUMPDEST STOP JUMPDEST PUSH0 SELFBALANCE SWAP1 POP SWAP1 JUMP JUMPDEST PUSH0 PUSH0 SWAP1 SLOAD SWAP1 PUSH2 0x100 EXP SWAP1 DIV PUSH20 0xFFFFFFFFFFFFFFFFFFFFFFFFFFFFFFFFFFFFFFFF AND PUSH20 0xFFFFFFFFFFFFFFFFFFFFFFFFFFFFFFFFFFFFFFFF AND CALLER PUSH20 0xFFFFFFFFFFFFFFFFFFFFFFFFFFFFFFFFFFFFFFFF AND EQ PUSH2 0x301 JUMPI PUSH1 0x40 MLOAD PUSH32 0x8C379A000000000000000000000000000000000000000000000000000000000 DUP2 MSTORE PUSH1 0x4 ADD PUSH2 0x2F8 SWAP1 PUSH2 0xBF6 JUMP JUMPDEST PUSH1 0x40 MLOAD DUP1 SWAP2 SUB SWAP1 REVERT JUMPDEST PUSH1 0x2 SLOAD TIMESTAMP LT ISZERO PUSH2 0x346 JUMPI PUSH1 0x40 MLOAD PUSH32 0x8C379A000000000000000000000000000000000000000000000000000000000 DUP2 MSTORE PUSH1 0x4 ADD PUSH2 0x33D SWAP1 PUSH2 0xC5E JUMP JUMPDEST PUSH1 0x40 MLOAD DUP1 SWAP2 SUB SWAP1 REVERT JUMPDEST PUSH0 PUSH1 0x6 SLOAD EQ PUSH2 0x38A JUMPI PUSH1 0x40 MLOAD PUSH32 0x8C379A000000000000000000000000000000000000000000000000000000000 DUP2 MSTORE PUSH1 0x4 ADD PUSH2 0x381 SWAP1 PUSH2 0xCC6 JUMP JUMPDEST PUSH1 0x40 MLOAD DUP1 SWAP2 SUB SWAP1 REVERT JUMPDEST PUSH1 0x1 PUSH1 0x6 DUP2 SWAP1 SSTORE POP PUSH2 0x39A PUSH2 0xA1D JUMP JUMPDEST PUSH1 0x4 PUSH0 SWAP1 SLOAD SWAP1 PUSH2 0x100 EXP SWAP1 DIV PUSH1 0xFF AND PUSH2 0x3E8 JUMPI PUSH1 0x40 MLOAD PUSH32 0x8C379A000000000000000000000000000000000000000000000000000000000 DUP2 MSTORE PUSH1 0x4 ADD PUSH2 0x3DF SWAP1 PUSH2 0xD2E JUMP JUMPDEST PUSH1 0x40 MLOAD DUP1 SWAP2 SUB SWAP1 REVERT JUMPDEST PUSH1 0x4 PUSH1 0x1 SWAP1 SLOAD SWAP1 PUSH2 0x100 EXP SWAP1 DIV PUSH1 0xFF AND ISZERO PUSH2 0x438 JUMPI PUSH1 0x40 MLOAD PUSH32 0x8C379A000000000000000000000000000000000000000000000000000000000 DUP2 MSTORE PUSH1 0x4 ADD PUSH2 0x42F SWAP1 PUSH2 0xD96 JUMP JUMPDEST PUSH1 0x40 MLOAD DUP1 SWAP2 SUB SWAP1 REVERT JUMPDEST PUSH0 SELFBALANCE SWAP1 POP PUSH1 0x1 PUSH1 0x4 PUSH1 0x1 PUSH2 0x100 EXP DUP2 SLOAD DUP2 PUSH1 0xFF MUL NOT AND SWAP1 DUP4 ISZERO ISZERO MUL OR SWAP1 SSTORE POP PUSH0 PUSH0 PUSH0 SWAP1 SLOAD SWAP1 PUSH2 0x100 EXP SWAP1 DIV PUSH20 0xFFFFFFFFFFFFFFFFFFFFFFFFFFFFFFFFFFFFFFFF AND PUSH20 0xFFFFFFFFFFFFFFFFFFFFFFFFFFFFFFFFFFFFFFFF AND DUP3 PUSH1 0x40 MLOAD PUSH2 0x49C SWAP1 PUSH2 0xDE1 JUMP JUMPDEST PUSH0 PUSH1 0x40 MLOAD DUP1 DUP4 SUB DUP2 DUP6 DUP8 GAS CALL SWAP3 POP POP POP RETURNDATASIZE DUP1 PUSH0 DUP2 EQ PUSH2 0x4D6 JUMPI PUSH1 0x40 MLOAD SWAP2 POP PUSH1 0x1F NOT PUSH1 0x3F RETURNDATASIZE ADD AND DUP3 ADD PUSH1 0x40 MSTORE RETURNDATASIZE DUP3 MSTORE RETURNDATASIZE PUSH0 PUSH1 0x20 DUP5 ADD RETURNDATACOPY PUSH2 0x4DB JUMP JUMPDEST PUSH1 0x60 SWAP2 POP JUMPDEST POP POP SWAP1 POP DUP1 PUSH2 0x51F JUMPI PUSH1 0x40 MLOAD PUSH32 0x8C379A000000000000000000000000000000000000000000000000000000000 DUP2 MSTORE PUSH1 0x4 ADD PUSH2 0x516 SWAP1 PUSH2 0xE3F JUMP JUMPDEST PUSH1 0x40 MLOAD DUP1 SWAP2 SUB SWAP1 REVERT JUMPDEST PUSH0 PUSH0 SWAP1 SLOAD SWAP1 PUSH2 0x100 EXP SWAP1 DIV PUSH20 0xFFFFFFFFFFFFFFFFFFFFFFFFFFFFFFFFFFFFFFFF AND PUSH20 0xFFFFFFFFFFFFFFFFFFFFFFFFFFFFFFFFFFFFFFFF AND PUSH32 0xEAFF4B37086828766AD3268786972C0CD24259D4C87A80F9D3963A3C3D999B0D DUP4 PUSH1 0x40 MLOAD PUSH2 0x585 SWAP2 SWAP1 PUSH2 0xA9F JUMP JUMPDEST PUSH1 0x40 MLOAD DUP1 SWAP2 SUB SWAP1 LOG2 POP POP PUSH0 PUSH1 0x6 DUP2 SWAP1 SSTORE POP JUMP JUMPDEST PUSH1 0x2 SLOAD DUP2 JUMP JUMPDEST PUSH1 0x1 SLOAD DUP2 JUMP JUMPDEST PUSH1 0x5 PUSH1 0x20 MSTORE DUP1 PUSH0 MSTORE PUSH1 0x40 PUSH0 KECCAK256 PUSH0 SWAP2 POP SWAP1 POP SLOAD DUP2 JUMP JUMPDEST PUSH1 0x2 SLOAD TIMESTAMP LT ISZERO PUSH2 0x5FE JUMPI PUSH1 0x40 MLOAD PUSH32 0x8C379A000000000000000000000000000000000000000000000000000000000 DUP2 MSTORE PUSH1 0x4 ADD PUSH2 0x5F5 SWAP1 PUSH2 0xC5E JUMP JUMPDEST PUSH1 0x40 MLOAD DUP1 SWAP2 SUB SWAP1 REVERT JUMPDEST PUSH0 PUSH1 0x6 SLOAD EQ PUSH2 0x642 JUMPI PUSH1 0x40 MLOAD PUSH32 0x8C379A000000000000000000000000000000000000000000000000000000000 DUP2 MSTORE PUSH1 0x4 ADD PUSH2 0x639 SWAP1 PUSH2 0xCC6 JUMP JUMPDEST PUSH1 0x40 MLOAD DUP1 SWAP2 SUB SWAP1 REVERT JUMPDEST PUSH1 0x1 PUSH1 0x6 DUP2 SWAP1 SSTORE POP PUSH2 0x652 PUSH2 0xA1D JUMP JUMPDEST PUSH1 0x4 PUSH0 SWAP1 SLOAD SWAP1 PUSH2 0x100 EXP SWAP1 DIV PUSH1 0xFF AND ISZERO PUSH2 0x6A1 JUMPI PUSH1 0x40 MLOAD PUSH32 0x8C379A000000000000000000000000000000000000000000000000000000000 DUP2 MSTORE PUSH1 0x4 ADD PUSH2 0x698 SWAP1 PUSH2 0xEA7 JUMP JUMPDEST PUSH1 0x40 MLOAD DUP1 SWAP2 SUB SWAP1 REVERT JUMPDEST PUSH0 PUSH1 0x5 PUSH0 CALLER PUSH20 0xFFFFFFFFFFFFFFFFFFFFFFFFFFFFFFFFFFFFFFFF AND PUSH20 0xFFFFFFFFFFFFFFFFFFFFFFFFFFFFFFFFFFFFFFFF AND DUP2 MSTORE PUSH1 0x20 ADD SWAP1 DUP2 MSTORE PUSH1 0x20 ADD PUSH0 KECCAK256 SLOAD SWAP1 POP PUSH0 DUP2 GT PUSH2 0x724 JUMPI PUSH1 0x40 MLOAD PUSH32 0x8C379A000000000000000000000000000000000000000000000000000000000 DUP2 MSTORE PUSH1 0x4 ADD PUSH2 0x71B SWAP1 PUSH2 0xF0F JUMP JUMPDEST PUSH1 0x40 MLOAD DUP1 SWAP2 SUB SWAP1 REVERT JUMPDEST PUSH0 PUSH1 0x5 PUSH0 CALLER PUSH20 0xFFFFFFFFFFFFFFFFFFFFFFFFFFFFFFFFFFFFFFFF AND PUSH20 0xFFFFFFFFFFFFFFFFFFFFFFFFFFFFFFFFFFFFFFFF AND DUP2 MSTORE PUSH1 0x20 ADD SWAP1 DUP2 MSTORE PUSH1 0x20 ADD PUSH0 KECCAK256 DUP2 SWAP1 SSTORE POP PUSH0 CALLER PUSH20 0xFFFFFFFFFFFFFFFFFFFFFFFFFFFFFFFFFFFFFFFF AND DUP3 PUSH1 0x40 MLOAD PUSH2 0x78B SWAP1 PUSH2 0xDE1 JUMP JUMPDEST PUSH0 PUSH1 0x40 MLOAD DUP1 DUP4 SUB DUP2 DUP6 DUP8 GAS CALL SWAP3 POP POP POP RETURNDATASIZE DUP1 PUSH0 DUP2 EQ PUSH2 0x7C5 JUMPI PUSH1 0x40 MLOAD SWAP2 POP PUSH1 0x1F NOT PUSH1 0x3F RETURNDATASIZE ADD AND DUP3 ADD PUSH1 0x40 MSTORE RETURNDATASIZE DUP3 MSTORE RETURNDATASIZE PUSH0 PUSH1 0x20 DUP5 ADD RETURNDATACOPY PUSH2 0x7CA JUMP JUMPDEST PUSH1 0x60 SWAP2 POP JUMPDEST POP POP SWAP1 POP DUP1 PUSH2 0x80E JUMPI PUSH1 0x40 MLOAD PUSH32 0x8C379A000000000000000000000000000000000000000000000000000000000 DUP2 MSTORE PUSH1 0x4 ADD PUSH2 0x805 SWAP1 PUSH2 0xF77 JUMP JUMPDEST PUSH1 0x40 MLOAD DUP1 SWAP2 SUB SWAP1 REVERT JUMPDEST CALLER PUSH20 0xFFFFFFFFFFFFFFFFFFFFFFFFFFFFFFFFFFFFFFFF AND PUSH32 0xA171B6942063C6F2800CE40A780EDCE37BAA2B618571B11EEDD1E69E626E7D76 DUP4 PUSH1 0x40 MLOAD PUSH2 0x854 SWAP2 SWAP1 PUSH2 0xA9F JUMP JUMPDEST PUSH1 0x40 MLOAD DUP1 SWAP2 SUB SWAP1 LOG2 POP POP PUSH0 PUSH1 0x6 DUP2 SWAP1 SSTORE POP JUMP JUMPDEST PUSH1 0x4 PUSH0 SWAP1 SLOAD SWAP1 PUSH2 0x100 EXP SWAP1 DIV PUSH1 0xFF AND DUP2 JUMP JUMPDEST PUSH0 PUSH0 SWAP1 SLOAD SWAP1 PUSH2 0x100 EXP SWAP1 DIV PUSH20 0xFFFFFFFFFFFFFFFFFFFFFFFFFFFFFFFFFFFFFFFF AND DUP2 JUMP JUMPDEST PUSH1 0x4 PUSH1 0x1 SWAP1 SLOAD SWAP1 PUSH2 0x100 EXP SWAP1 DIV PUSH1 0xFF AND DUP2 JUMP JUMPDEST PUSH1 0x3 SLOAD DUP2 JUMP JUMPDEST PUSH0 PUSH1 0x2 SLOAD TIMESTAMP LT PUSH2 0x8C8 JUMPI PUSH0 SWAP1 POP PUSH2 0x8D9 JUMP JUMPDEST TIMESTAMP PUSH1 0x2 SLOAD PUSH2 0x8D6 SWAP2 SWAP1 PUSH2 0xFC2 JUMP JUMPDEST SWAP1 POP JUMPDEST SWAP1 JUMP JUMPDEST PUSH1 0x2 SLOAD TIMESTAMP LT PUSH2 0x920 JUMPI PUSH1 0x40 MLOAD PUSH32 0x8C379A000000000000000000000000000000000000000000000000000000000 DUP2 MSTORE PUSH1 0x4 ADD PUSH2 0x917 SWAP1 PUSH2 0x103F JUMP JUMPDEST PUSH1 0x40 MLOAD DUP1 SWAP2 SUB SWAP1 REVERT JUMPDEST PUSH0 CALLVALUE GT PUSH2 0x962 JUMPI PUSH1 0x40 MLOAD PUSH32 0x8C379A000000000000000000000000000000000000000000000000000000000 DUP2 MSTORE PUSH1 0x4 ADD PUSH2 0x959 SWAP1 PUSH2 0x10A7 JUMP JUMPDEST PUSH1 0x40 MLOAD DUP1 SWAP2 SUB SWAP1 REVERT JUMPDEST CALLVALUE PUSH1 0x5 PUSH0 CALLER PUSH20 0xFFFFFFFFFFFFFFFFFFFFFFFFFFFFFFFFFFFFFFFF AND PUSH20 0xFFFFFFFFFFFFFFFFFFFFFFFFFFFFFFFFFFFFFFFF AND DUP2 MSTORE PUSH1 0x20 ADD SWAP1 DUP2 MSTORE PUSH1 0x20 ADD PUSH0 KECCAK256 PUSH0 DUP3 DUP3 SLOAD PUSH2 0x9AE SWAP2 SWAP1 PUSH2 0x10C5 JUMP JUMPDEST SWAP3 POP POP DUP2 SWAP1 SSTORE POP CALLVALUE PUSH1 0x3 PUSH0 DUP3 DUP3 SLOAD PUSH2 0x9C6 SWAP2 SWAP1 PUSH2 0x10C5 JUMP JUMPDEST SWAP3 POP POP DUP2 SWAP1 SSTORE POP CALLER PUSH20 0xFFFFFFFFFFFFFFFFFFFFFFFFFFFFFFFFFFFFFFFF AND PUSH32 0x264F630D9EFA0D07053A31163641D9FCC0ADAFC9D9E76F1C37C2CE3A558D2C52 CALLVALUE PUSH1 0x40 MLOAD PUSH2 0xA13 SWAP2 SWAP1 PUSH2 0xA9F JUMP JUMPDEST PUSH1 0x40 MLOAD DUP1 SWAP2 SUB SWAP1 LOG2 JUMP JUMPDEST PUSH1 0x4 PUSH0 SWAP1 SLOAD SWAP1 PUSH2 0x100 EXP SWAP1 DIV PUSH1 0xFF AND ISZERO DUP1 ISZERO PUSH2 0xA3B JUMPI POP PUSH1 0x2 SLOAD TIMESTAMP LT ISZERO JUMPDEST ISZERO PUSH2 0xA85 JUMPI PUSH1 0x1 SLOAD PUSH1 0x3 SLOAD LT PUSH2 0xA6A JUMPI PUSH1 0x1 PUSH1 0x4 PUSH0 PUSH2 0x100 EXP DUP2 SLOAD DUP2 PUSH1 0xFF MUL NOT AND SWAP1 DUP4 ISZERO ISZERO MUL OR SWAP1 SSTORE POP PUSH2 0xA84 JUMP JUMPDEST PUSH0 PUSH1 0x4 PUSH0 PUSH2 0x100 EXP DUP2 SLOAD DUP2 PUSH1 0xFF MUL NOT AND SWAP1 DUP4 ISZERO ISZERO MUL OR SWAP1 SSTORE POP JUMPDEST JUMPDEST JUMP JUMPDEST PUSH0 DUP2 SWAP1 POP SWAP2 SWAP1 POP JUMP JUMPDEST PUSH2 0xA99 DUP2 PUSH2 0xA87 JUMP JUMPDEST DUP3 MSTORE POP POP JUMP JUMPDEST PUSH0 PUSH1 0x20 DUP3 ADD SWAP1 POP PUSH2 0xAB2 PUSH0 DUP4 ADD DUP5 PUSH2 0xA90 JUMP JUMPDEST SWAP3 SWAP2 POP POP JUMP JUMPDEST PUSH0 PUSH0 REVERT JUMPDEST PUSH0 PUSH20 0xFFFFFFFFFFFFFFFFFFFFFFFFFFFFFFFFFFFFFFFF DUP3 AND SWAP1 POP SWAP2 SWAP1 POP JUMP JUMPDEST PUSH0 PUSH2 0xAE5 DUP3 PUSH2 0xABC JUMP JUMPDEST SWAP1 POP SWAP2 SWAP1 POP JUMP JUMPDEST PUSH2 0xAF5 DUP2 PUSH2 0xADB JUMP JUMPDEST DUP2 EQ PUSH2 0xAFF JUMPI PUSH0 PUSH0 REVERT JUMPDEST POP JUMP JUMPDEST PUSH0 DUP2 CALLDATALOAD SWAP1 POP PUSH2 0xB10 DUP2 PUSH2 0xAEC JUMP JUMPDEST SWAP3 SWAP2 POP POP JUMP JUMPDEST PUSH0 PUSH1 0x20 DUP3 DUP5 SUB SLT ISZERO PUSH2 0xB2B JUMPI PUSH2 0xB2A PUSH2 0xAB8 JUMP JUMPDEST JUMPDEST PUSH0 PUSH2 0xB38 DUP5 DUP3 DUP6 ADD PUSH2 0xB02 JUMP JUMPDEST SWAP2 POP POP SWAP3 SWAP2 POP POP JUMP JUMPDEST PUSH0 DUP2 ISZERO ISZERO SWAP1 POP SWAP2 SWAP1 POP JUMP JUMPDEST PUSH2 0xB55 DUP2 PUSH2 0xB41 JUMP JUMPDEST DUP3 MSTORE POP POP JUMP JUMPDEST PUSH0 PUSH1 0x20 DUP3 ADD SWAP1 POP PUSH2 0xB6E PUSH0 DUP4 ADD DUP5 PUSH2 0xB4C JUMP JUMPDEST SWAP3 SWAP2 POP POP JUMP JUMPDEST PUSH2 0xB7D DUP2 PUSH2 0xADB JUMP JUMPDEST DUP3 MSTORE POP POP JUMP JUMPDEST PUSH0 PUSH1 0x20 DUP3 ADD SWAP1 POP PUSH2 0xB96 PUSH0 DUP4 ADD DUP5 PUSH2 0xB74 JUMP JUMPDEST SWAP3 SWAP2 POP POP JUMP JUMPDEST PUSH0 DUP3 DUP3 MSTORE PUSH1 0x20 DUP3 ADD SWAP1 POP SWAP3 SWAP2 POP POP JUMP JUMPDEST PUSH32 0x4F6E6C79206F776E657200000000000000000000000000000000000000000000 PUSH0 DUP3 ADD MSTORE POP JUMP JUMPDEST PUSH0 PUSH2 0xBE0 PUSH1 0xA DUP4 PUSH2 0xB9C JUMP JUMPDEST SWAP2 POP PUSH2 0xBEB DUP3 PUSH2 0xBAC JUMP JUMPDEST PUSH1 0x20 DUP3 ADD SWAP1 POP SWAP2 SWAP1 POP JUMP JUMPDEST PUSH0 PUSH1 0x20 DUP3 ADD SWAP1 POP DUP2 DUP2 SUB PUSH0 DUP4 ADD MSTORE PUSH2 0xC0D DUP2 PUSH2 0xBD4 JUMP JUMPDEST SWAP1 POP SWAP2 SWAP1 POP JUMP JUMPDEST PUSH32 0x43616D706169676E207374696C6C206163746976650000000000000000000000 PUSH0 DUP3 ADD MSTORE POP JUMP JUMPDEST PUSH0 PUSH2 0xC48 PUSH1 0x15 DUP4 PUSH2 0xB9C JUMP JUMPDEST SWAP2 POP PUSH2 0xC53 DUP3 PUSH2 0xC14 JUMP JUMPDEST PUSH1 0x20 DUP3 ADD SWAP1 POP SWAP2 SWAP1 POP JUMP JUMPDEST PUSH0 PUSH1 0x20 DUP3 ADD SWAP1 POP DUP2 DUP2 SUB PUSH0 DUP4 ADD MSTORE PUSH2 0xC75 DUP2 PUSH2 0xC3C JUMP JUMPDEST SWAP1 POP SWAP2 SWAP1 POP JUMP JUMPDEST PUSH32 0x5265656E7472616E742063616C6C000000000000000000000000000000000000 PUSH0 DUP3 ADD MSTORE POP JUMP JUMPDEST PUSH0 PUSH2 0xCB0 PUSH1 0xE DUP4 PUSH2 0xB9C JUMP JUMPDEST SWAP2 POP PUSH2 0xCBB DUP3 PUSH2 0xC7C JUMP JUMPDEST PUSH1 0x20 DUP3 ADD SWAP1 POP SWAP2 SWAP1 POP JUMP JUMPDEST PUSH0 PUSH1 0x20 DUP3 ADD SWAP1 POP DUP2 DUP2 SUB PUSH0 DUP4 ADD MSTORE PUSH2 0xCDD DUP2 PUSH2 0xCA4 JUMP JUMPDEST SWAP1 POP SWAP2 SWAP1 POP JUMP JUMPDEST PUSH32 0x476F616C206E6F74207265616368656400000000000000000000000000000000 PUSH0 DUP3 ADD MSTORE POP JUMP JUMPDEST PUSH0 PUSH2 0xD18 PUSH1 0x10 DUP4 PUSH2 0xB9C JUMP JUMPDEST SWAP2 POP PUSH2 0xD23 DUP3 PUSH2 0xCE4 JUMP JUMPDEST PUSH1 0x20 DUP3 ADD SWAP1 POP SWAP2 SWAP1 POP JUMP JUMPDEST PUSH0 PUSH1 0x20 DUP3 ADD SWAP1 POP DUP2 DUP2 SUB PUSH0 DUP4 ADD MSTORE PUSH2 0xD45 DUP2 PUSH2 0xD0C JUMP JUMPDEST SWAP1 POP SWAP2 SWAP1 POP JUMP JUMPDEST PUSH32 0x46756E647320616C72656164792077697468647261776E000000000000000000 PUSH0 DUP3 ADD MSTORE POP JUMP JUMPDEST PUSH0 PUSH2 0xD80 PUSH1 0x17 DUP4 PUSH2 0xB9C JUMP JUMPDEST SWAP2 POP PUSH2 0xD8B DUP3 PUSH2 0xD4C JUMP JUMPDEST PUSH1 0x20 DUP3 ADD SWAP1 POP SWAP2 SWAP1 POP JUMP JUMPDEST PUSH0 PUSH1 0x20 DUP3 ADD SWAP1 POP DUP2 DUP2 SUB PUSH0 DUP4 ADD MSTORE PUSH2 0xDAD DUP2 PUSH2 0xD74 JUMP JUMPDEST SWAP1 POP SWAP2 SWAP1 POP JUMP JUMPDEST PUSH0 DUP2 SWAP1 POP SWAP3 SWAP2 POP POP JUMP JUMPDEST POP JUMP JUMPDEST PUSH0 PUSH2 0xDCC PUSH0 DUP4 PUSH2 0xDB4 JUMP JUMPDEST SWAP2 POP PUSH2 0xDD7 DUP3 PUSH2 0xDBE JUMP JUMPDEST PUSH0 DUP3 ADD SWAP1 POP SWAP2 SWAP1 POP JUMP JUMPDEST PUSH0 PUSH2 0xDEB DUP3 PUSH2 0xDC1 JUMP JUMPDEST SWAP2 POP DUP2 SWAP1 POP SWAP2 SWAP1 POP JUMP JUMPDEST PUSH32 0x5769746864726177206661696C65640000000000000000000000000000000000 PUSH0 DUP3 ADD MSTORE POP JUMP JUMPDEST PUSH0 PUSH2 0xE29 PUSH1 0xF DUP4 PUSH2 0xB9C JUMP JUMPDEST SWAP2 POP PUSH2 0xE34 DUP3 PUSH2 0xDF5 JUMP JUMPDEST PUSH1 0x20 DUP3 ADD SWAP1 POP SWAP2 SWAP1 POP JUMP JUMPDEST PUSH0 PUSH1 0x20 DUP3 ADD SWAP1 POP DUP2 DUP2 SUB PUSH0 DUP4 ADD MSTORE PUSH2 0xE56 DUP2 PUSH2 0xE1D JUMP JUMPDEST SWAP1 POP SWAP2 SWAP1 POP JUMP JUMPDEST PUSH32 0x476F616C2077617320726561636865642C206E6F20726566756E647300000000 PUSH0 DUP3 ADD MSTORE POP JUMP JUMPDEST PUSH0 PUSH2 0xE91 PUSH1 0x1C DUP4 PUSH2 0xB9C JUMP JUMPDEST SWAP2 POP PUSH2 0xE9C DUP3 PUSH2 0xE5D JUMP JUMPDEST PUSH1 0x20 DUP3 ADD SWAP1 POP SWAP2 SWAP1 POP JUMP JUMPDEST PUSH0 PUSH1 0x20 DUP3 ADD SWAP1 POP DUP2 DUP2 SUB PUSH0 DUP4 ADD MSTORE PUSH2 0xEBE DUP2 PUSH2 0xE85 JUMP JUMPDEST SWAP1 POP SWAP2 SWAP1 POP JUMP JUMPDEST PUSH32 0x4E6F20636F6E747269627574696F6E20746F20726566756E6400000000000000 PUSH0 DUP3 ADD MSTORE POP JUMP JUMPDEST PUSH0 PUSH2 0xEF9 PUSH1 0x19 DUP4 PUSH2 0xB9C JUMP JUMPDEST SWAP2 POP PUSH2 0xF04 DUP3 PUSH2 0xEC5 JUMP JUMPDEST PUSH1 0x20 DUP3 ADD SWAP1 POP SWAP2 SWAP1 POP JUMP JUMPDEST PUSH0 PUSH1 0x20 DUP3 ADD SWAP1 POP DUP2 DUP2 SUB PUSH0 DUP4 ADD MSTORE PUSH2 0xF26 DUP2 PUSH2 0xEED JUMP JUMPDEST SWAP1 POP SWAP2 SWAP1 POP JUMP JUMPDEST PUSH32 0x526566756E64206661696C656400000000000000000000000000000000000000 PUSH0 DUP3 ADD MSTORE POP JUMP JUMPDEST PUSH0 PUSH2 0xF61 PUSH1 0xD DUP4 PUSH2 0xB9C JUMP JUMPDEST SWAP2 POP PUSH2 0xF6C DUP3 PUSH2 0xF2D JUMP JUMPDEST PUSH1 0x20 DUP3 ADD SWAP1 POP SWAP2 SWAP1 POP JUMP JUMPDEST PUSH0 PUSH1 0x20 DUP3 ADD SWAP1 POP DUP2 DUP2 SUB PUSH0 DUP4 ADD MSTORE PUSH2 0xF8E DUP2 PUSH2 0xF55 JUMP JUMPDEST SWAP1 POP SWAP2 SWAP1 POP JUMP JUMPDEST PUSH32 0x4E487B7100000000000000000000000000000000000000000000000000000000 PUSH0 MSTORE PUSH1 0x11 PUSH1 0x4 MSTORE PUSH1 0x24 PUSH0 REVERT JUMPDEST PUSH0 PUSH2 0xFCC DUP3 PUSH2 0xA87 JUMP JUMPDEST SWAP2 POP PUSH2 0xFD7 DUP4 PUSH2 0xA87 JUMP JUMPDEST SWAP3 POP DUP3 DUP3 SUB SWAP1 POP DUP2 DUP2 GT ISZERO PUSH2 0xFEF JUMPI PUSH2 0xFEE PUSH2 0xF95 JUMP JUMPDEST JUMPDEST SWAP3 SWAP2 POP POP JUMP JUMPDEST PUSH32 0x43616D706169676E20656E646564000000000000000000000000000000000000 PUSH0 DUP3 ADD MSTORE POP JUMP JUMPDEST PUSH0 PUSH2 0x1029 PUSH1 0xE DUP4 PUSH2 0xB9C JUMP JUMPDEST SWAP2 POP PUSH2 0x1034 DUP3 PUSH2 0xFF5 JUMP JUMPDEST PUSH1 0x20 DUP3 ADD SWAP1 POP SWAP2 SWAP1 POP JUMP JUMPDEST PUSH0 PUSH1 0x20 DUP3 ADD SWAP1 POP DUP2 DUP2 SUB PUSH0 DUP4 ADD MSTORE PUSH2 0x1056 DUP2 PUSH2 0x101D JUMP JUMPDEST SWAP1 POP SWAP2 SWAP1 POP JUMP JUMPDEST PUSH32 0x446F6E617465206E6F6E2D7A65726F20616D6F756E7400000000000000000000 PUSH0 DUP3 ADD MSTORE POP JUMP JUMPDEST PUSH0 PUSH2 0x1091 PUSH1 0x16 DUP4 PUSH2 0xB9C JUMP JUMPDEST SWAP2 POP PUSH2 0x109C DUP3 PUSH2 0x105D JUMP JUMPDEST PUSH1 0x20 DUP3 ADD SWAP1 POP SWAP2 SWAP1 POP JUMP JUMPDEST PUSH0 PUSH1 0x20 DUP3 ADD SWAP1 POP DUP2 DUP2 SUB PUSH0 DUP4 ADD MSTORE PUSH2 0x10BE DUP2 PUSH2 0x1085 JUMP JUMPDEST SWAP1 POP SWAP2 SWAP1 POP JUMP JUMPDEST PUSH0 PUSH2 0x10CF DUP3 PUSH2 0xA87 JUMP JUMPDEST SWAP2 POP PUSH2 0x10DA DUP4 PUSH2 0xA87 JUMP JUMPDEST SWAP3 POP DUP3 DUP3 ADD SWAP1 POP DUP1 DUP3 GT ISZERO PUSH2 0x10F2 JUMPI PUSH2 0x10F1 PUSH2 0xF95 JUMP JUMPDEST JUMPDEST SWAP3 SWAP2 POP POP JUMP INVALID LOG2 PUSH5 0x6970667358 0x22 SLT KECCAK256 0xEA 0xD0 CODESIZE 0xCD DUP16 MLOAD DUP9 EXTCODECOPY RETF 0xDC 0xC1 DELEGATECALL 0x2D 0xD5 CALLVALUE 0x22 MUL 0xAF 0x4D PUSH15 0x17DAE8708A9E60822872943364736F PUSH13 0x634300081E0033000000000000 "
		},
		"gasEstimates": {
			"creation": {
				"codeDepositCost": "879600",
				"executionCost": "infinite",
				"totalCost": "infinite"
			},
			"external": {
				"contributions(address)": "2891",
				"deadline()": "2470",
				"donate()": "infinite",
				"fundsWithdrawn()": "2561",
				"getBalance()": "335",
				"getTimeLeft()": "infinite",
				"goal()": "2492",
				"goalReached()": "2466",
				"owner()": "2529",
				"refund()": "61869",
				"totalRaised()": "2491",
				"withdrawFunds()": "infinite"
			},
			"internal": {
				"_updateCampaignStatus()": "32800"
			}
		},
		"methodIdentifiers": {
			"contributions(address)": "42e94c90",
			"deadline()": "29dcb0cf",
			"donate()": "ed88c68e",
			"fundsWithdrawn()": "ac307fcf",
			"getBalance()": "12065fe0",
			"getTimeLeft()": "c7e284b8",
			"goal()": "40193883",
			"goalReached()": "7d3d6522",
			"owner()": "8da5cb5b",
			"refund()": "590e1ae3",
			"totalRaised()": "c5c4744c",
			"withdrawFunds()": "24600fc3"
		}
	},
	"abi": [
		{
			"inputs": [
				{
					"internalType": "uint256",
					"name": "_goalWei",
					"type": "uint256"
				},
				{
					"internalType": "uint256",
					"name": "_durationMinutes",
					"type": "uint256"
				}
			],
			"stateMutability": "nonpayable",
			"type": "constructor"
		},
		{
			"anonymous": false,
			"inputs": [
				{
					"indexed": true,
					"internalType": "address",
					"name": "donor",
					"type": "address"
				},
				{
					"indexed": false,
					"internalType": "uint256",
					"name": "amount",
					"type": "uint256"
				}
			],
			"name": "DonationReceived",
			"type": "event"
		},
		{
			"anonymous": false,
			"inputs": [
				{
					"indexed": true,
					"internalType": "address",
					"name": "to",
					"type": "address"
				},
				{
					"indexed": false,
					"internalType": "uint256",
					"name": "amount",
					"type": "uint256"
				}
			],
			"name": "FundsWithdrawn",
			"type": "event"
		},
		{
			"anonymous": false,
			"inputs": [
				{
					"indexed": true,
					"internalType": "address",
					"name": "to",
					"type": "address"
				},
				{
					"indexed": false,
					"internalType": "uint256",
					"name": "amount",
					"type": "uint256"
				}
			],
			"name": "RefundIssued",
			"type": "event"
		},
		{
			"inputs": [
				{
					"internalType": "address",
					"name": "",
					"type": "address"
				}
			],
			"name": "contributions",
			"outputs": [
				{
					"internalType": "uint256",
					"name": "",
					"type": "uint256"
				}
			],
			"stateMutability": "view",
			"type": "function"
		},
		{
			"inputs": [],
			"name": "deadline",
			"outputs": [
				{
					"internalType": "uint256",
					"name": "",
					"type": "uint256"
				}
			],
			"stateMutability": "view",
			"type": "function"
		},
		{
			"inputs": [],
			"name": "donate",
			"outputs": [],
			"stateMutability": "payable",
			"type": "function"
		},
		{
			"inputs": [],
			"name": "fundsWithdrawn",
			"outputs": [
				{
					"internalType": "bool",
					"name": "",
					"type": "bool"
				}
			],
			"stateMutability": "view",
			"type": "function"
		},
		{
			"inputs": [],
			"name": "getBalance",
			"outputs": [
				{
					"internalType": "uint256",
					"name": "",
					"type": "uint256"
				}
			],
			"stateMutability": "view",
			"type": "function"
		},
		{
			"inputs": [],
			"name": "getTimeLeft",
			"outputs": [
				{
					"internalType": "uint256",
					"name": "",
					"type": "uint256"
				}
			],
			"stateMutability": "view",
			"type": "function"
		},
		{
			"inputs": [],
			"name": "goal",
			"outputs": [
				{
					"internalType": "uint256",
					"name": "",
					"type": "uint256"
				}
			],
			"stateMutability": "view",
			"type": "function"
		},
		{
			"inputs": [],
			"name": "goalReached",
			"outputs": [
				{
					"internalType": "bool",
					"name": "",
					"type": "bool"
				}
			],
			"stateMutability": "view",
			"type": "function"
		},
		{
			"inputs": [],
			"name": "owner",
			"outputs": [
				{
					"internalType": "address",
					"name": "",
					"type": "address"
				}
			],
			"stateMutability": "view",
			"type": "function"
		},
		{
			"inputs": [],
			"name": "refund",
			"outputs": [],
			"stateMutability": "nonpayable",
			"type": "function"
		},
		{
			"inputs": [],
			"name": "totalRaised",
			"outputs": [
				{
					"internalType": "uint256",
					"name": "",
					"type": "uint256"
				}
			],
			"stateMutability": "view",
			"type": "function"
		},
		{
			"inputs": [],
			"name": "withdrawFunds",
			"outputs": [],
			"stateMutability": "nonpayable",
			"type": "function"
		}
	]
}